:0200000036299F
:08000800FF0003088301FE0064
:100010000408FC000A08FD0001308A0047298030EE
:10002000A100FE30B5200130B5207530AD00303074
:10003000EA28A101A117B500B508031D2128030175
:1000400022280130B5020310A20CA20CA20CC03071
:100050002205403EB507FE30B5203508B528A10180
:10006000A117B500FE30B5203508B528A701B000AE
:10007000B101A01127080319A0150530A6002730EB
:10008000AF0010304F200330AF00E8304F20AF01F9
:1000900064304F20AF010A304F2030085628AE00A0
:1000A0003108AD003008AC00FE202C08AC00A603DF
:1000B0000319A011270803196028260203186728CE
:1000C0002C08031DA011A0196728303EB528080090
:1000D000B300061186118316061186110F308605AE
:1000E00083123308A01892283E30AD008030EA20F9
:1000F0003330B200A6201330AD008830EA20A620AD
:100100006430E920A6206430E9202230B200A62025
:10011000283091200C30912006309120A014330813
:1001200092282014B200201CA0288611033C031C36
:10013000A528A5200730AD00D030EA200314080020
:100140002014FE3C0319B3288615201C2010061528
:100150000F3086053208F03986040611B20E2018D9
:10016000A6283230E92033083229A11B682808006C
:100170000830B20029181A212308840024082919FC
:100180002921291D2B212208840028098417800594
:1001900022088400AD0CAC0C00082804031C2806BF
:1001A0008000D520B20BC8283229230884002408F7
:1001B0008006000080060800AF01AE00FF30AE07E9
:1001C000031CAF07031C32290330AD00DF30EA20E7
:1001D000DE28AD01E83EAC00AD09FC30031CF3287D
:1001E000AC070318F028AC070000AD0FF0282C185E
:1001F000F928AC1CFD280000FD280800B101B00161
:100200001030B2002D0DB00DB10D2E08B0022F0828
:10021000031C2F0FB102031814292E08B0072F0852
:1002200003182F0FB1070310AC0DAD0DB20B02294F
:100230002C080800AE01AF012129AD0CAC0CAE0DAD
:10024000AF0DFF3E03181D292F08AD002E08AC008E
:10025000322980042E29FF3A80052F29FF3A84177E
:100260008005322983138312031308008301A00140
:1002700007309F0083168113033086007C30850091
:100280004030810090308B0083128A11BA294E30A1
:10029000840025088000840A26088000840A270834
:1002A0008000840A2A088000840A32088000840AB8
:1002B00033088000840A36088000840A37088000EA
:1002C0008A118B1C98298B108A11861C802948085A
:1002D000063C3A3E84000008AA00AA088A110319C5
:1002E0007E294808063C3A3E84000008AA00AA037A
:1002F0004808063C3A3E84002A0880008A11982962
:100300004808063C3A3E84000008AA0009302A0248
:100310008A11031898294808063C3A3E84000008D0
:10032000AA00AA0A4808063C3A3E84002A0880002F
:100330004E3084000008A500840A0008A600840A44
:100340000008A700840A0008AA00840A0008B20076
:10035000840A0008B300840A0008B600840A000872
:10036000B7007D088A007C0884007E088300FF0EA9
:100370007F0E09008A010F203D08CB004B0EF0399B
:10038000CA003C08CB004B08CA07CA090530A200C6
:100390008030A8000530A3000130A400A9004A085D
:1003A000AC008A01B8203B08CB004B0EF039CA00E4
:1003B0003A08CB004B08CA07CA090530A2008030B2
:1003C000A8000530A3000130A400A9004A08AC0031
:1003D0008A01B820CA014008CB004B08CA07CA09E5
:1003E0000530A2008030A8000530A3000130A40031
:1003F000A9004A08AC008A01B8203F08CB004B0E88
:10040000F039CA003E08CB004B08CA07CA090530BC
:10041000A2008030A8000530A3000130A400A9008C
:100420004A08AC008A01B82083168510831285140F
:100430000630AC008A11AC0B1B2A000000008316AA
:100440008510831285108030A1008A012F2045304D
:100450008A0168202D308A01682053308A01682083
:1004600074308A01682079308A0168206E308A01F0
:10047000682075308A01682073308A0168208030D6
:10048000A100C0308A012F2020308A0168208A0113
:10049000682032308A01682030308A01682031308B
:1004A0008A01682034308A01682020308A0168205F
:1004B0008A0168200230AF00EE308A01DD208A0117
:1004C0000F208030A1008A012F2053308A0168203C
:1004D00065308A01682074308A0168203A308A01C8
:1004E0006820C801FE308A01682040308A016820F7
:1004F00000308A0168200E308A01682011308A019C
:10050000682011308A01682011308A0168200A3081
:100510008A0168201B308A01682000308A01682027
:100520008A1105192E2BCD0107304D028A110318AF
:10053000BC2A4D083A3E84000008AA004D08413EFE
:1005400084002A0880004D08413E84000008AA006B
:100550000A302A028A11031CB72A4D08413E840042
:10056000003080004D083A3E8400003080000130A9
:10057000CD078A11031C942A3D08CB004B0EF0399D
:10058000CA003C08CB004B08CA07CA090530A200C4
:100590008030A8000530A3000130A400A9004A085B
:1005A000AC008A01B8203B08CB004B0EF039CA00E2
:1005B0003A08CB004B08CA07CA090530A2008030B0
:1005C000A8000530A3000130A400A9004A08AC002F
:1005D0008A01B820CA014008CB004B08CA07CA09E3
:1005E0000530A2008030A8000530A3000130A4002F
:1005F000A9004A08AC008A01B8203F08CB004B0E86
:10060000F039CA003E08CB004B08CA07CA090530BA
:10061000A2008030A8000530A3000130A400A9008A
:100620004A08AC008A01B82083168510831285140D
:100630000630AC008A11AC0B1B2B000000008316A7
:1006400085108312851064308A01DC208A11051917
:100650002E2B64308A01DC208A01262BB910CD01B3
:1006600007304D028A1103184A2B4D083A3E840088
:100670000008AA004D08413E84000008AB002A088B
:100680002B028A110319452BB9140130CD078A11A9
:10069000031C302B8A11B91C572B8030A1008730E6
:1006A0008A012F2021308A0168208A115F2B803037
:1006B000A10087308A012F2020308A016820013074
:1006C000051A0030B800013039180030B8058A1119
:1006D0000319772B391464308A01DC200630480274
:1006E0008A110318762BC80A8A11772BC8018A1140
:1006F000051E7B2B3910CD0107304D028A110318DE
:10070000A52B4D083A3E84000008AA000A302A02B0
:100710008A11031C902B4D083A3E84000030800063
:100720008030A1000230A2004D08073C8A011B2046
:100730000130A7004D083A3E840000088A013720A6
:100740000130CD078A11031C7C2B8030A100C730FB
:100750008A012F2000308A016820FE308A0168203B
:100760000E308A016820FE308A016820C0308A017C
:100770006820C901480849028A110318C82BFE30B5
:100780008A01682014308A016820C90A8A01BA2BBC
:1007900064308A01DC208A01902A8A01CD2B8A01EB
:0207A000CF2B5D
:02400E00103F61
:00000001FF
